:020000040800F2
:1000000098920020E10100083B250008091900082A
:1000100039250008350500084934000800000000B3
:10002000000000000000000000000000490100087E
:100030007B050008000000008D010008252B00084A
:10004000FB010008FB010008FB010008FB010008A0
:10005000FB0100086D260008EB080008F108000805
:10006000F7080008FD080008FB010008FB01000874
:10007000FB010008FB010008FB010008FB01000870
:10008000FB010008FB010008FB010008FB01000860
:10009000FB010008FB010008FB010008FB01000850
:1000A000FB010008FB010008FB010008FB01000840
:1000B000FB010008FB010008FB010008FB01000830
:1000C000FB010008FB010008FB010008FB01000820
:1000D000FB010008FB010008FB010008FB01000810
:1000E000FB010008FB010008FB010008FB01000800
:1000F00055320008FB010008FB010008FB01000865
:10010000FB010008FB010008FB010008FB010008DF
:10011000FB010008FB010008FB010008FB010008CF
:10012000FB010008FB010008FB010008FB010008BF
:10013000DFF810D000F0B2F9004800476D3A00082F
:10014000AFF3008098920020224B19680868B0E84D
:10015000F00F80F30988BFF36F8F4FF0000080F33A
:1001600011884EF00D0E7047000000000648006830
:10017000006880F3088862B661B6BFF34F8FBFF3A3
:100180006F8F00DF00BF00BF08ED00E0EFF30980D4
:10019000BFF36F8F0F4B1A6820E9F00F106008B59E
:1001A0004FF0500080F31188BFF34F8FBFF36F8F74
:1001B00004F03CFD4FF0000080F31188BDE80840DA
:1001C00019680868B0E8F00F80F30988BFF36F8FF3
:1001D000704700BF64000020EFF305807047000007
:1001E0000648804706480047FEE7FEE7FEE7FEE7D1
:1001F000FEE7FEE7FEE7FEE7FEE7FEE7BF2B0008AF
:100200003101000840EA01039B0703D009E008C957
:10021000121F08C0042AFAD203E011F8013B00F8CB
:10022000013B521EF9D27047D2B201E000F8012B17
:10023000491EFBD270470022F6E710B513460A4666
:1002400004461946FFF7F0FF204610BD10B50446DE
:1002500004E00B7800F8013B03B1491C521EF8D2B0
:10026000204610BD421C10F8011B0029FBD1801A4A
:10027000704730B505460020034600E05B1C934202
:1002800005D2EC5CC85C201A01D1002CF6D130BD3F
:10029000F0B480EA0102D40F4200B2EB410F02D267
:1002A0000246084611464A0042D0C30DDDB2C1F3F2
:1002B000C752AD1A202D35DAC1F3160141F4000200
:1002C00004B15242C5F1200602FA06F12A41104457
:1002D000B3EBD05F23D0C4B1012DA0EBC35009DC38
:1002E000F0BC4FF0004202EAC352DBB200F500005E
:1002F00000F0A5B8400000F1807000EBC350A0F101
:10030000807040EAD170490009E0490841EAC071B3
:10031000A0EBC35000F50000400800EBC350F0BC58
:1003200000F084B86142012202EB4101001BF6E7B4
:10033000F0BC704781F00041AAE780F00040A7E7D9
:1003400030B480EA010202F0004530F0004221F0B2
:10035000004013D090B1C30DD40DC2F31601C0F309
:100360001600E41A41F4000140F400027D34914289
:1003700001D3641C00E04900002C02DA30BC0020EC
:1003800070474FF400000023914201D3891A0343C0
:1003900040084FEA4101F7D151B1914202D14FF0EB
:1003A000004105E002D24FF0010101E06FF00101D0
:1003B00003EBC450284430BC00F038B8C10F80EAC9
:1003C000E0700844CA079623002100F038B896234D
:1003D0000022114600F033B820F00040C10DC0F3F8
:1003E000160040F400007F2901DA002070479629AA
:1003F00003DCC1F19601C8407047963988407047C8
:1004000030B50B46014600202022012409E021FAE4
:1004100002F59D4205D303FA02F5491B04FA02F5E1
:100420002844151EA2F10102F1DC30BD0029A8BF4D
:100430007047401C490008BF20F00100704710B40D
:10044000B0FA80FC00FA0CF050EA010404BF10BCC2
:10045000704749B1CCF1200421FA04F411FA0CF1EF
:1004600018BF012121430843A3EB0C01CB1D4FEA28
:1004700000614FEA102042BF002010BC704700EB23
:10048000C35010440029A4BF10BC7047401C490051
:1004900008BF20F0010010BC70470000064C074D5B
:1004A00006E0E06840F0010394E807009847103444
:1004B000AC42F6D3FFF740FE9C5F0008BC5F00082B
:1004C00005224FF4FA710A2000F010B801226421CD
:1004D000082000F00BB801224FF49671062000F0BE
:1004E00005B8032264210720AFF300801CB58DF806
:1004F00000000748ADF802108DF80420006B0028BA
:1005000005D04FF0FF330022694603F061FB1CBDAC
:100510000400002001221102014800F02CBB000061
:10052000000C014000224FF48071014800F023BB11
:10053000000C0140FEE710B50446FFF7F3FF20462C
:1005400000F0E2F9BDE81040FFF7E4BF70B5002409
:100550000546461E0EE000BFFFF7E4FF642000F0F2
:10056000D3F9FFF7D7FFB44202DA962000F0CCF9B6
:10057000641CE4B2AC42EFD370BD704710B500F01C
:10058000ABF8002000F08CF800F00CF8012000F02F
:100590007BF800F007F8002000F076F8BDE8104086
:1005A000AFF3008008B500200090401C0090642844
:1005B000FBD308BD10B500F08FF8012000F070F8F3
:1005C000FFF7F0FF012000F05FF8FFF7EBFF0020DE
:1005D00000F05AF8BDE81040FFF7E4BF70B50646DA
:1005E000002400F069F80025002000F04DF8FFF726
:1005F000D9FF012000F048F8FFF7D4FF6006040E91
:1006000000F014F808B144F001046D1CEDB2082D9F
:10061000EAD3002000F038F8FFF7C4FF16B1FFF767
:10062000ADFF01E0FFF7C6FF204670BD4FF400614B
:10063000014800F09BBA00000008014070B5044674
:1006400000F04AF80025002000F01EF8FFF7AAFF8E
:10065000200601D5012000E0002000F021F8FFF77E
:10066000A1FF012000F010F8FFF79CFF60066D1C51
:10067000040EEDB2082DE6D3002000F005F8BDE829
:100680007040FFF78FBF0000044B4FF4805108B15A
:10069000012200E00022184600F06DBA0008014077
:1006A000044B4FF4006108B1012200E0002218461B
:1006B00000F061BA000801401FB5002001900390CE
:1006C0004FF400600090012002906946014800F05C
:1006D00051F91FBD000801401FB54FF400600090A4
:1006E00011200190012002900320039069460248E6
:1006F00000F040F91FBD00000008014010B5FFF7F1
:10070000EBFF0120FFF7CCFF0120FFF7BDFFFFF754
:1007100049FF0020FFF7C4FFFFF744FF0020FFF769
:10072000B3FFBDE81040FFF73DBF10B5FFF7D4FFA2
:100730000020FFF7B5FFFFF735FF0120FFF7A4FF0B
:10074000FFF730FF0120FFF7ABFFBDE81040FFF7D8
:1007500029BF10B5FFF7B0FFFFF724FF0120FFF717
:1007600093FFFFF71FFFFFF761FF04460020FFF72D
:100770008BFFFFF717FFFFF7AFFFFFF713FF2046D1
:1007800010BD00007FB5FFF7A7FF4FF48054112084
:10079000CDE90040012002900320094D03906946F5
:1007A000284600F0E7F801222146284600F0E3F948
:1007B0000122D102284600F0DEF9FFF7F3FE7FBDEB
:1007C000000801402DE9F04114000E46054608D00E
:1007D000FFF794FFA020FFF731FFFFF7BAFFB8B98A
:1007E00002E00120BDE8F081280AFFF727FFFFF7AC
:1007F000B0FF68B9E8B2FFF721FFFFF7AAFF38B9E9
:10080000FFF77CFFA120FFF719FFFFF7A2FF10B150
:10081000FFF78BFFE5E70025671E05E00120FFF7E6
:10082000DDFE70556D1CADB2BD42F7DB0020FFF759
:10083000D5FE311901F8010CFFF777FF0020D1E751
:100840002DE9F04116460F468046002416E000BF11
:1008500008EB0400810989014031091A8DB2311B6E
:10086000A94200DA8DB2EAB2391980B200F00AF872
:1008700010B10120BDE8F081601984B2B442E7D321
:100880000020F7E770B515000E46044601D0402D54
:1008900001D9012070BDFFF731FFA020FFF7CEFE88
:1008A000FFF757FF98B9200AFFF7C8FEFFF751FF7F
:1008B00068B9E0B2FFF7C2FEFFF74BFF38B900247A
:1008C0000AE0305DFFF7BAFEFFF743FF10B1FFF714
:1008D0002CFFDEE7641CE4B2AC42F2D3FFF725FF45
:1008E0000A2000F011F8002070BD012000F036B899
:1008F000022000F033B8042000F030B8082000F0E7
:100900002DB872B6FEE7000070B5044600F038F965
:100910000546601C02D004480078044400F030F919
:10092000401BA042FAD370BD5400002010B503F064
:10093000BBF8074C606002F0C9FF064821780078D8
:10094000884203D0044A61681160207010BD000025
:100950004C000020F7000020EC000020044910B5F6
:100960000A68024202D00860FFF7E0FF10BD0000F5
:10097000140401402DE9F84FDFF8C8910024A9F1D3
:10098000040B23460F2709F1040AABF1040ED1E052
:100990000125A54006EA0502AA4276D1DFF8A8C1E2
:1009A0004E68A6EB0C0866452BD00DDC032E34D028
:1009B00005DC36B3012E19D0022E2FD11BE0112EEB
:1009C00016D0122E2AD119E0B8F5881F19D006DCEE
:1009D000B8F5803F15D0B8F5801F1FD111E0B8F5EC
:1009E000001F0ED0B8F5041F18D10AE0CB6815E03F
:1009F000CB681B1D12E0CB6808330FE0CB680C33CB
:100A00000CE08B682BB1012B4FF0080303D045613C
:100A100004E0042302E0056100E00023FF2A01D87E
:100A2000064601E000F104064FEA840501D9A5F16C
:100A30002005D6F8008007FA05FC28EA0C0803FA1E
:100A400005F548EA0508C6F800804D68ED0070D548
:100A50003E4DAE6946F00106AE61AD6924F0030675
:100A600005F0010500953A4D06EB050CDCF8085041
:100A7000A607360F07FA06F825EA0805DFF8D4803E
:100A8000404503D14FF0000825E052E0DFF8C88070
:100A9000404502D14FF001081DE0DFF8C08040451D
:100AA00002D14FF0020816E0DFF8B480404502D1D1
:100AB0004FF003080FE0DFF8AC80404502D14FF063
:100AC000040808E0DFF8A080404502D14FF0050897
:100AD00001E04FF0060808FA06F848EA0508CCF8E5
:100AE00008804D68D9F80060ED024D4601D51643E7
:100AF00000E096432E604D68DAF80060AD0255467E
:100B000001D5164300E096432E604D68DBF8006087
:100B1000AD035D4601D5164300E096432E604D6857
:100B2000DEF80060ED03754601D5164300E09643FC
:100B30002E60641C0A681646E2407FF429AFBDE8C7
:100B4000F88F00000804014000001110001002405E
:100B50000000014000080140000C0140001001406D
:100B60000014014000180140001C0140806808404A
:100B700000D0012070470AB1016170470904FBE70A
:100B800001488068704700005400002002488168D6
:100B9000027811448160704754000020074810B566
:100BA000016841F010010160032000F0A9F80F2056
:100BB00000F006F800F04AF8002010BD00200240C6
:100BC00030B505461C4887B0816941F40051816108
:100BD000806906A900F40050009001A800F010FA06
:100BE00000F03EFA1549164AB0FBF1F11548491ECE
:100BF0000260416040F2E7320021C0E903218160D8
:100C0000816100F00AFD040012D10E4800F034FDAD
:100C100004000DD12C2000F045F8102D07D2002241
:100C200029462C2000F04CF80748056000E001241C
:100C300007B0204630BD00000010024040420F00C7
:100C4000003401407C01002058000020134808B502
:100C5000816941F001018161816901F00101009127
:100C6000C16941F08051C161C069002200F080502B
:100C700000900F21901E00F023F805210022084665
:100C800000F01EF8052000F00DF80548416821F03D
:100C9000E06141F00071416008BD000000100240B9
:100CA00000000140002809DB00F01F0201219140F3
:100CB0004009800000F1E020C0F8001170470000FA
:100CC000F0B40E4B1B680C46C3F30223C3F10705B7
:100CD000042D00D90425191D072901D2002300E0A5
:100CE000DB1E012606FA05F1491E214099409E406F
:100CF000761E16403143F0BC02F014BC0CED00E04F
:100D0000064900F0070208684FF6FF03184040EA62
:100D10000220034A10430860704700000CED00E019
:100D20000000FA05014901200862704700000E42E8
:100D300010B501460020284C04292FD00BDC0129D6
:100D400030D0022929D100F08BF96168C1F38131DB
:100D5000491C49001FE0082920D010291DD16168D5
:100D60002268D20119D51D48C1F38342C903805CB2
:100D70000AD56168194AC1F34041921E515C184A74
:100D8000B2FBF1F1484301E016494843616849026A
:100D900003D440000321B0FBF1F010BDBDE81040CA
:100DA00000F06EB9226AC2F30121012903D1920732
:100DB00001D5C80310BD022905D1626A920702D588
:100DC00049F6404010BD0329FCD121688903F9D5BB
:100DD0004FF2244010BD000000100240E45E000805
:100DE00000127A0000093D002DE9F843054600781D
:100DF000354CC00754D0E0690026C00008D4E06933
:100E000040F08050E061E069012600F080500090E1
:100E10002E480168C90512D40168804641F48071EA
:100E20000160FFF7ADFE074605E000BFFFF7A8FE33
:100E3000C01B642823D8D8F80000C005F6D5206A66
:100E400010F4407021D0A98801F4407181421CD077
:100E5000206A1F49012220F440700A6000220A60C3
:100E60002062C00711D0FFF78BFE074641F2883899
:100E700008E000BFFFF784FEC11B414502D90320F3
:100E8000BDE8F883206A8007F4D5206A696820F4F9
:100E90004070084320621EB1E06920F08050E0619C
:100EA0002878800705D56068A96820F44040084389
:100EB00060602878C00605D56068696920F4800004
:100EC000084360600020DBE7001002400070004033
:100ED000400442422DE9F0470F46050061D0434EE1
:100EE000306800F00700B84209D2306820F00700EF
:100EF00038433060306800F00700B84251D12868AC
:100F00003B4C810712D5400703D5606840F4E06090
:100F100060602878000703D5606840F46050606026
:100F20006068A96820F0F000084360602878C00776
:100F300028D06868012810D02168022810D08907BD
:100F400000292EDA616821F0030101436160FFF797
:100F500017FE804641F288390DE021688903EFE7EA
:100F60008901EDE7FFF70CFEA0EB0801494502D926
:100F70000320BDE8F0876068696800F00C00B0EB02
:100F8000810FEFD1306800F00700B8420BD930680C
:100F900020F0070038433060306800F00700B842A6
:100FA00001D00120E5E72878400705D56068E968A9
:100FB00020F4E060084360602878000706D5606888
:100FC000296920F4605040EAC100606000F058F8E0
:100FD0006168084AC1F30311515CC84006490860C2
:100FE00006480068FFF7ECFD0020C2E70020024041
:100FF00000100240F45E000860000020580000204D
:101000000F2202600C4A536803F0030343605368E5
:1010100003F0F0038360536803F4E063C360526835
:101020004FF4E06303EAD20202610448006800F072
:1010300007000860704700000010024000200240D6
:101040000448054900684968044AC1F30221515C1B
:10105000C84070476000002000100240045F000894
:101060000448054900684968044AC1F3C221515C3B
:10107000C84070476000002000100240045F000874
:101080000E4A51680E4801F00C03042B11D0082BB6
:101090000FD10C48C1F38343C903C05C0AD5516822
:1010A000084AC1F34041921E515C054A5043B0FBCF
:1010B000F1F07047044948437047000000100240B7
:1010C00000127A00D25E000800093D002DE9F84FB9
:1010D000040070D02078C04DC00749D06868C0F3C4
:1010E0008100012807D06868C0F38100022809D177
:1010F0006868C00306D52868800339D56068002871
:10110000E7D035E06068B0F5803F0BD010B1B0F5A6
:10111000A02F11D0286820F480302860286820F49F
:10112000802002E0286840F480302860606890B138
:10113000FFF726FD06460AE0286840F48020286074
:10114000F0E700BFFFF71CFD801B642873D82868F8
:101150008003F7D50CE0FFF713FD064605E000BF5E
:10116000FFF70EFD801B6428F0D828688003F7D4B1
:1011700020789A4E80074FF001094FF0000839D5CA
:10118000686810F00C0F07D06868C0F3810002286F
:1011900009D16868C00306D42868800714D520697F
:1011A000012808D110E02069B0B1C6F80090FFF71F
:1011B000E7FC074605E00AE1FFF7E2FCC01B022856
:1011C000C4D828688007F7D52868616920F0F8003E
:1011D00040EAC10028600DE0C6F80080FFF7D0FCAF
:1011E000074604E0FFF7CCFCC01B022823D8286880
:1011F0008007F7D4207800072CD57948A169D9B1A8
:10120000C0F80090FFF7BCFC074604E0FFF7B8FC0D
:10121000C01B02280FD8686A8007F7D571484FF4C1
:10122000FA510068B0FBF1F0009000BF0098411E39
:101230000091FAD20EE080E0C0F80080FFF7A0FC39
:10124000074604E0FFF79CFCC01B022875D8686ABB
:101250008007F7D42078400760D5E8690027C000F0
:1012600008D4E86940F08050E861E869012700F09F
:10127000805000905C480168C90513D4016883461A
:1012800041F480710160FFF77BFC824606E000BFFD
:10129000FFF776FCA0EB0A0064284ED8DBF80000CC
:1012A000C005F5D5E06801280AD008B1052813D09B
:1012B000286A20F001002862286A20F0040002E079
:1012C000286A40F001002862E06841F2883B98B14A
:1012D000FFF756FC82460BE0286A40F004002862C3
:1012E000EEE700BFFFF74CFCA0EB0A0159455AD8C6
:1012F000286A8007F6D50CE0FFF742FC824605E03D
:10130000FFF73EFCA0EB0A0159454CD8286A80073C
:10131000F6D41FB1E86920F08050E861E06988B335
:101320006968C1F38101022944D00228C6F86080AF
:1013300004D0FFF725FC044638E034E0FFF720FC3A
:10134000074604E0FFF71CFCC01B02282BD82868C6
:101350008001F7D4206AB0F5803F05D16868A168A4
:1013600020F4003008436860D4E908010843696844
:1013700021F4741108436860C6F86090FFF700FC20
:10138000044606E025E000BFFFF7FAFB001B022839
:1013900009D828688001F7D51BE000BFFFF7F0FBF4
:1013A000001B022802D90320BDE8F88F28688001BD
:1013B000F4D40EE00128F7D06868226A00F4803186
:1013C000914204D1616A00F47010884201D001207A
:1013D000EAE70020E8E70000001002400000424277
:1013E000800442426000002000700040F8B5050013
:1013F0004FF0000016460C46009006D02CB100229B
:101400006946284600F019F808B10120F8BD287B8C
:101410002070E87BE070697B6170A97BA17056B198
:1014200001F025F9E070607801F021F96070A07892
:1014300001F01DF9A0700020F8BD2DE9F04791469C
:101440000C465FEA00084AD084B3D8F80000406830
:10145000400744D4404601F0A9F94FF461620546C3
:10146000B0FBF2F1B0FBF2F302FB13503C23B0FBF4
:10147000F3F0B5FBF2F6607002FB1650B0FBF3F22E
:1014800003FB1200A070182931D31820B1FBF0F72C
:10149000B1FBF0F200FB12102070404601F07FF922
:1014A000411C04D0A84202D9461B02E017E04FF0CD
:1014B000FF36A7EB071000EB4000C0EB001005EB78
:1014C000C0152946404601F0C0F940B9701C01D052
:1014D000711900E03146404601F0A3F910B1012036
:1014E000BDE8F0873946404601F0CCF800E02170B5
:1014F000B9F1000F0BD0207801F0B9F820706078B6
:1015000001F0B5F86070A07801F0B1F8A07000208B
:10151000E6E7000070B5040003D0607C002610B13F
:1015200005E0012070BD2674204600F03DF8022041
:101530006074204600F052F8042550BB204601F0AC
:10154000F8F830BB2068416821F007014160A068CD
:1015500020B11448016821F0010101601148001F09
:101560000168A26821F46071114301606068411C48
:1015700004D10120FFF7DCFB58B1401E2268C0F304
:1015800003419160216880B2C860204601F0ECF808
:1015900008B16574C5E7E67301206073A0736074D9
:1015A000002070BD306C004008B5006808498842D2
:1015B0000DD1FFF7B7FB0748C16941F00061C16178
:1015C000C069054900F0006000900120086008BD76
:1015D00000280040001002403C04424270B5040064
:1015E0000AD02068416821F008014160FFF7C8FA7D
:1015F00005464FF47A7608E0012070BDFFF7C0FA87
:10160000401BB04201D9032070BD2068406800072C
:10161000F4D5002070BD7047704710B5040003D0AA
:1016200094F83D0010B107E0012010BD002084F8BF
:101630003C00204600F01EF8022084F83D00211DE9
:10164000206801F00DFE012084F8460084F83E0079
:1016500084F83F0084F8400084F8410084F8420098
:1016600084F8430084F8440084F8450084F83D0081
:10167000002010BD7047000090F83D10012901D0F6
:1016800001207047022180F83D100168CA6842F0CD
:101690000102CA6000680E4988420ED00D49884296
:1016A0000BD0B0F1804F08D00B49884205D00B49D0
:1016B000884202D00A49884204D1816801F00701BA
:1016C000062903D0016841F0010101600020704744
:1016D000002C01400034014000040040000800409C
:1016E000000C004070472DE9F04104460068C668D0
:1016F00005694FF00007A90713D5B10711D5F91EE9
:10170000016101202077206880698007204602D08F
:10171000FFF7E8FF04E000F07EF8204600F07CF8D8
:101720002777680716D5700714D521686FF0040075
:101730000861022020772068806910F4407F2046ED
:1017400002D0FFF7CFFF04E000F065F8204600F07C
:1017500063F82777280715D5300713D521686FF070
:1017600008000861042020772068C06980072046AF
:1017700002D0FFF7B7FF04E000F04DF8204600F07C
:101780004BF82777E80616D5F00614D521686FF0D8
:1017900010000861082020772068C06910F4407F9D
:1017A000204602D0FFF79EFF04E000F034F8204608
:1017B00000F032F82777E80708D0F00706D0216854
:1017C0006FF001000861204600F028F8280608D5CF
:1017D000300606D521686FF0800008612046FFF7CB
:1017E0001AFF680608D5700606D521686FF040001C
:1017F0000861204600F01CF8A8060AD5B00608D5F6
:1018000021686FF0200008612046BDE8F041FFF735
:1018100003BFBDE8F08170477047000000680349CE
:10182000884201D1FFF7B2B970470000003401408F
:10183000704770B5040004D094F84100002510B141
:1018400006E0012070BD84F84050204600F024F8E6
:10185000242084F841002068C16821F40051C1604F
:10186000204601F095FD2068016921F49041016155
:101870002068416921F02A0141612068C16841F472
:101880000051C1606564202084F8410084F8420062
:101890006563002070BD000030B585B00024009461
:1018A00001940294039400681449884224D1144896
:1018B000816941F480418161816901F48041049131
:1018C000816941F00401816180690E4D00F00400DE
:1018D00004904FF4007000900220019003200390C8
:1018E00069462846FFF746F82815CDE90004694601
:1018F00028460294FFF73EF805B030BD003801409D
:101900000010024000080140FEE7000045A18EB033
:10191000D1E90001CDE90C0101F0D5F900F046FD57
:10192000FEF730FF00F080FB4FF6FF7001F048F942
:1019300006220AA90020FEF745FF00253B4E8DF840
:101940002E50284601240AA90A5C0AB106220AE0A0
:10195000401CC0B20628F7D306220CA90020FEF7CF
:101960006FFF06220CA93248FEF770FC347002F0BB
:101970009BF8304C304A0021A060304802F0A6F9B4
:101980002D4A2061243200212D4802F09FF92A4A75
:101990006061483200212B4802F098F9264AA06184
:1019A0006C320021284802F091F9234AE06190321C
:1019B0000021264802F08AF91F4A2062B432002131
:1019C000234802F083F91C4A6062D8320021214882
:1019D00002F07CF9A062012280211F48FFF7CBF8BA
:1019E0001E4805701E4805701E4805701E4805708B
:1019F0001E4805708DF8005002F056F8099020211D
:101A00000DF10100FEF717FCA06B20B100231A4670
:101A1000694602F0DDF8002002F0EAFF012002F042
:101A200036F8FBE73132333435360000F800002059
:101A30000801002004000020305D00084D3400083B
:101A4000653A0008152400083D250008752800089F
:101A5000FD320008652A000800140140E40000205F
:101A6000E5000020E6000020E7000020E80000205C
:101A70007CB54FF6FF74204601F0A2F81FA000F0DD
:101A8000B5F80225502100231FA20846CDE90045E4
:101A900001F07CFA002320A26E215020CDE9004500
:101AA00001F074FA002321A28C215020CDE90045D9
:101AB00001F06CFA002322A2AA215020CDE90045B2
:101AC00001F064FA002321A2C8215020CDE900458D
:101AD00001F05CFA002320A2E6215020CDE9004568
:101AE00001F054FA0120CDE900401F231CA24FF45D
:101AF0008271962001F04AFA7CBD000041444D49B4
:101B00004E204D4F44450000312E2041444420508A
:101B1000415353574F524400322E204D4F444946B3
:101B2000592050415353574F52440000332E204404
:101B3000454C4554452050415353574F52440000A3
:101B4000342E205345542054494D4500352E2056FF
:101B5000494557204C4F4700302E204558495400E6
:101B600053454C454354204F5054494F4E3A000082
:101B70007CB5064614460D460846FEF773FB6043E7
:101B80004FF6FF7101EAC000B0F5F07F01D90020E7
:101B900005E0C0F5F07000EBD070C0F34F00CDE968
:101BA000001400232A46314601F0F0F97CBD000004
:101BB00010B54FF6FF7001F003F805A000F016F81D
:101BC0000322BDE8104006A18C20FFF7D1BF000022
:101BD0004348414E474543205355434345535300E3
:101BE00052455455524E204D454E550008B50146BC
:101BF00002221420FFF7BCFF0020322300904FF494
:101C0000E6721946142000F0F3FF08BD7CB510A061
:101C1000FFF7ECFF022213A15020FFF7A9FF0322D8
:101C200014A17820FFF7A4FF01254FF6FF740023CD
:101C300012A2C8216420CDE9004501F0A7F90023D4
:101C400013A2DC217820CDE9004501F09FF97CBD8D
:101C5000444F4F4352204C4F434B2053595354450C
:101C60004D000000454E5445522050415353574FAC
:101C7000524400002A2A2A2A2A2A00005052455398
:101C800053202A20544F20434F4E4649524D0000C6
:101C90005052455353202320544F20434C4541522A
:101CA0000000000010B54FF6FF7000F089FF05A09E
:101CB000FFF79CFF0322BDE8104006A16420FFF758
:101CC00057BF000050415353574F5244204348419F
:101CD0004E47450041444D494E204D4F444500007C
:101CE00070B54FF6FF7486B0204600F069FF16A06D
:101CF000FFF77CFF032216A16420FFF739FF0222C1
:101D000017A18C20FFF734FF01254FF478463346A6
:101D100018A2C8219620CDE9004501F037F903202B
:101D200000901848037818A2102102A801F0E0FBE7
:101D3000334602AAC8214FF48C70CDE9004501F06A
:101D400025F906B070BD00004552524F5200000008
:101D500057524F4E472050415353574F5244000063
:101D6000504C454153452054525920414741494E1A
:101D7000000000004552524F5220434F554E543AF6
:101D800000000000E500002025642F25640000000D
:101D900030B50C4600218DB02A250291084602AAD2
:101DA0005F230391A04201D2155400E01354401C5C
:101DB000C0B20628F6D38DF80E1010A0FFF716FF5C
:101DC00003204FF6FF75CDE900501F2302AA7821AA
:101DD000A02001F0DBF80620009023460BA2202172
:101DE00004A801F085FB0120CDE90050002304AADE
:101DF0009621A02001F0CAF80DB030BD454E5445E3
:101E0000522050415353574F52440000494E5055B1
:101E1000543A2025642F25640000000030B50C469C
:101E200000218DB02A250291084602AA5F23039162
:101E3000A04201D2155400E01354401CC0B2062841
:101E4000F6D38DF80E1010A0FFF7D0FE03204FF64A
:101E5000FF75CDE900501F2302AA7821A02001F0D0
:101E600095F80620009023460BA2202104A801F03B
:101E70003FFB0120CDE90050002304AA9621A020B9
:101E800001F084F80DB030BD4348414E4745205025
:101E9000415353574F524400494E5055543A202510
:101EA000642F25640000000070B54FF6FF748AB0FF
:101EB000204600F085FE14A0FFF798FE032216A12D
:101EC0006420FFF755FE03220FA18C20FFF750FE80
:101ED00002254FF47846334613A2B4219620CDE96B
:101EE000004501F053F8052312A2202102A801F0B9
:101EF000FFFA334602AAD221B420CDE9004501F011
:101F000045F80AB070BD000053595354454D204C5C
:101F10004F434B4544000000544F4F204D414E5914
:101F2000204552524F525300504C45415345205783
:101F3000414954002564205345434F4E445300000B
:101F40001CB501224FF6FF71CDE9001202460023B5
:101F50000A214FF4AF7001F019F81CBD10B54FF60F
:101F6000FF7000F02DFE05A0FFF740FE0322BDE844
:101F7000104004A16420FFF7FBBD00004552524F02
:101F80005200000054696D656F7574007CB54FF6A2
:101F9000FF74204600F014FE10A0FFF727FE032276
:101FA00010A16420FFF7E4FD032212A18C20FFF7AB
:101FB000DFFD02254FF4FC66334612A2C8219620AD
:101FC000CDE9004500F0E2FF334612A2E621AA2047
:101FD000CDE9004500F0DAFF7CBD000053554343D6
:101FE00045535300444F4F5220554E4C4F434B45A1
:101FF000440000005355434345535346554C4C59F8
:1020000000000000504C4541534520454E54455278
:102010000000000057495448494E2033205345439F
:102020004F4E44530000000070B5282600254FF69F
:10203000FF7000F0C5FD741B04F1140080B2032290
:102040000CA1FFF795FD04F13C0080B203220EA124
:10205000FFF78EFDA0B203220FA1FFF789FD283400
:10206000A0B2032210A1FFF783FD1435ADB2782D85
:10207000E1D970BD202020202020202020202020F9
:1020800020202020200000002020202020202020B0
:102090002020202020202000534D41525420444F26
:1020A0004F52204C4F434B0048755A686574616F1E
:1020B00020323038300000002DE9F04116460D4640
:1020C000074600240DE000BF00F01AF83846FEF77E
:1020D0001BFC25B100F00CF82846FEF715FC641C2B
:1020E000E4B2B442F0D3BDE8F04100F001B8000022
:1020F0000122D1030148FEF73EBD00000008014067
:1021000010B500224FF400410548FEF734FD0548A4
:102110004FF4FA610068BDE8104001F059BE0000BC
:10212000000801404400002010B500221C4B11465D
:102130001C4801F011FE1C4C194B00222064103386
:1021400001211A4801F008FE154A6064603A022134
:102150000A2001F011FD124A2063483A02210420AE
:1021600001F00AFD0E4A6063303A0221102001F0AE
:1021700003FD0B4AA063183A0221042001F0FCFC85
:10218000E0630B4A00210B4801F0A0FD044AE06027
:10219000843A0021084801F099FDE06210BD00007A
:1021A000B05E0008BD380008040000202547000884
:1021B0000C5D0008192B00080D1900082DE9F04FDF
:1021C00085B00025714800950195029503958169B8
:1021D00041F040018161816901F040010491816910
:1021E00041F010018161816901F010010491816960
:1021F00041F480718161816901F480710491816988
:1022000041F020018161816901F02001049181691F
:1022100041F004018161816901F004010491816947
:1022200041F0080181618069DFF864A100F00800D5
:10223000049000224FF604515046FEF79CFCDFF854
:1022400054B10022F0215846FEF795FCDFF8489182
:1022500041F20107002239464846FEF78CFC012274
:102260004FF420715046FEF786FC002248F2B2710E
:102270004A48FEF780FC012244F201014748FEF77C
:102280007AFC01224FF418414548FEF774FC4FF4E4
:102290008078012241464348FEF76DFC042001246A
:1022A00003268DE8710069465046FEF763FB0F2058
:1022B00000903D48CDE9010469465846FEF75AFBB7
:1022C000F0208DE83100694658460394FEF752FB32
:1022D00001AA009782E8700069464846FEF74AFB6B
:1022E0004FF680708DE83100694650460394FEF742
:1022F00041FB4CF283708DE8310069462748039416
:10230000FEF738FBF002CDE90004CDE9024669464C
:102310002348FEF72FFBE0038DE831006946204893
:102320000394FEF727FB30208DE8710069461B48B7
:10233000FEF720FBCDF80080CDE90145694619483C
:102340000394FEF717FB002205210620FEF7B8FCD8
:102350000620FEF7A7FC002205210720FEF7B0FCAF
:102360000720FEF79FFC002205210820FEF7A8FCAD
:102370000820FEF797FC002205210920FEF7A0FCAB
:102380000920FEF78FFC05B0BDE8F08F0010024079
:1023900000180140001001400020014000140140DD
:1023A00000080140000C0140000021100A4810B54F
:1023B000084901604FF0FF3141604FF48071816046
:1023C000FFF7A8F8002803D0BDE81040FEF799BA3F
:1023D00010BD000000280040200100200C4810B56E
:1023E0000A4901604FF4E1314160002181600C2213
:1023F000C160C0E904128161C161FFF71AFA0028C7
:1024000003D0BDE81040FEF77CBA10BD0038014093
:10241000340100200027414CDFF804819CB03E4687
:10242000B94600BF01F040FB0546C01B642870D3CD
:1024300000231A466946606B01F06CFB9DF80000B2
:10244000A0B301281BD0022834D1012E32D04E4631
:10245000A4F804904FF6FF7000F0B2FB8DF84460D2
:1024600020210DF145001A95FDF7E5FEA06B20B186
:1024700000231A4611A901F0ABFB01261AE0022E37
:1024800018D0A08880B106208DF8440025A2202114
:102490000DF145001A9501F02BF8A06B20B1002337
:1024A0001A4611A901F094FB022603E0FFE7032E70
:1024B00000D0032698F800004746062828D1A088B7
:1024C00030B307208DF8440020210DF145001A9506
:1024D000FDF7B1FEA06B30B10121618000231A46E7
:1024E00011A901F075FBFDF7EBFF06221049114819
:1024F000FDF7ACFE06220E490020FEF7A1F90C49BB
:10250000C1F80090A1F8049081F8069087F8009037
:102510002F46012001F0BBFA84E7000004000020F0
:10252000F70000204D4F44494659204F4B00000012
:10253000F000002008010020FEE7FEE78AB0002737
:10254000B846434EDFF80CA1EB46434DDFF80C9143
:1025500001F0AAFA0446C01B64284FD3307806283D
:102560004BD1A888E8BB06223D493A48FDF781FED9
:10257000C0B399F80010491C89F8001003208DF8A9
:10258000000020210BF101000994FDF754FEA86B17
:1025900030B10121698000231A46694601F018FB19
:1025A000FDF79FFFCAF80080AAF804808AF8068029
:1025B00086F8008099F80000474603281DD3294972
:1025C0000120087004208DF8000020210BF101008B
:1025D0000994FDF730FEA86B38B100231A4669460E
:1025E00001E00AE00EE001F0F3FA41F2883001F078
:1025F0004EFA1C48077089F800702746012001F048
:1026000046FAA5E7474689F8008002208DF80000C9
:1026100020210DF101000994FDF70DFEA86B30B1EA
:102620000121698000231A46694601F0D1FA4FF46E
:102630007A6001F02CFA012280210B48FEF79BFA08
:10264000CAF80070AAF804708AF806703770D4E7E8
:10265000F7000020F000002004000020E50000202A
:1026600008010020E600002000140140704700210E
:1026700002E00A38C0B2491C0A28FAD2090740EA27
:10268000116070472DE9F04104460025C07B627B54
:10269000A37B42E0012A16D0032A14D0052A12D0C7
:1026A000072A10D0082A0ED00A2A0CD00C2A0AD0E9
:1026B000042A10D0062A0ED0092A0CD00B2A0AD0E0
:1026C000022A0DD028E01F2B0CD30C2A05D10122A1
:1026D0001346401C20E01E2B04D30123521C1BE098
:1026E0001C2B02D203F1010316E011D183B29E0725
:1026F00010D16426B3FBF6F706FB173636B94FF454
:10270000C876B3FBF6F706FB17331BB91D2303E0AE
:102710001D2B01D1032201236D1C8D42BAD3D1B2EE
:10272000E0736173DAB2A27300F050F82073BDE871
:10273000F08170B50446FEF723FA05464FF47A7629
:1027400006E0FEF71DFA401BB04201D9032070BD20
:10275000206840688006F4D52068416841F0100187
:102760004160002070BD000070B5044600684168FB
:1027700021F010014160FEF703FA05464FF47A7626
:1027800007E000BFFEF7FCF9401BB04201D903206F
:1027900070BD206840688006F4D5002070BD0168D7
:1027A000086A496A89B241EA004070470068816955
:1027B0008AB2C1698BB2816989B28A4203D0C06989
:1027C00061F31F40704743EA02407047F0B564244C
:1027D000C1EBC1030927A500072603EB0113032959
:1027E000B3FBF7F100F5FA60114401440AD2401E30
:1027F000B0FBF4F201EB9001B0FBF5F0891A08444C
:10280000001D08E0B0FBF4F201EB9001B0FBF5F025
:10281000891A0844801CB0FBF6F106FB1100C0B217
:10282000F0BD70B50D4606460024FFF782FF48B99B
:102830003168280C08623168A8B248623046FFF758
:1028400093FF00B10124204670BD70B50D460646C9
:102850000024FFF76EFF48B93168280C88613168A1
:10286000A8B2C8613046FFF77FFF00B101242046BF
:1028700070BD00008CB0DFF8B49100252E4699F8A9
:10288000022099F80110CDE9001299F8003068A2F1
:1028900010216B4800F02CFEDFF8A8B1DFF8A8A1EA
:1028A0006A4CDFF8AC816B4F0A23002202A9A06BAF
:1028B00001F030F938B99DF80800207066498AF8AF
:1028C0000000012008704FF0FF31386801F0B4F9C2
:1028D0009BF8000005287CD09AF80000092879D2DE
:1028E000DFE800F08F4D0A1A212C333C450000BF71
:1028F000FFF78CF9012059E06088022858D0FFF7D3
:1029000045FB0220608000252A4680215348FEF7BF
:1029100032F9FDF7E0FD4BE06088032848D0FFF76F
:10292000DFF9032042E06088042841D0FFF7BCFAB9
:10293000042060800025FDF7C3FD39E0608805288C
:1029400036D0FFF795F8052030E0608806282FD0B4
:102950000DF10900FFF7A6F9062027E06088072897
:1029600026D0FFF725F90020A08007201EE0608810
:1029700008281DD0002000F023F9082016E0608808
:10298000092815D0FFF7EAFAFDF7A0FD4FF4FA7514
:10299000284601F07CF84FF6FF7000F011F9284648
:1029A00001F075F800208AF80000092060800025F9
:1029B00099F8022099F80110CDE9001299F8003039
:1029C0001BA210211E4800F093FD1D48FFF7B8FA26
:1029D00001E024E015E098F8000000B30A2D04D0CF
:1029E0004FF6FF7000F0ECF80A2598F80010B1429D
:1029F00001D0A08850B1B14211D0A088012809D0DF
:102A00000DE0608801287FF473AFD1E71448FFF729
:102A1000BFF902E01248FFF701FA98F80060386841
:102A200001F033F9012001F032F83DE7F900002010
:102A3000253032643A253032643A25303264000061
:102A400010010020E400002001010020040000200B
:102A5000F7000020040100200001002000140140C4
:102A6000F00000208CB042F6F827DFF8A080284E56
:102A70004FF001090025274C01F016F8A168411A12
:102A8000B9420AD3C8F80050A8F8045088F8065094
:102A9000357008218DF800100EE041F28832914225
:102AA00019D33178B9B1C8F80050A8F8045088F8A3
:102AB000065035708DF80090099020210DF101002D
:102AC000FDF7B9FBA06B30B10023A4F802901A46C1
:102AD000694601F07DF80A2300220AA9E06B01F0A3
:102AE00019F89DF8280068B101280BD100F0DCFF2F
:102AF000A0608DF80050E06B20B100231A466946B3
:102B000001F066F8012000F0C2FFB5E7F0000020F8
:102B1000F70000200400002041F28834204600F035
:102B2000B6FFFBE710B54FF0E020006902F03EFD74
:102B3000012803D0BDE8104002F0FEB810BD70B50A
:102B400096B028216846FDF776FB14210AA8FDF708
:102B500072FB18210FA8FDF76EFB092001240090DD
:102B60004FF48030002504940694CDE90105022637
:102B7000CDE907604FF4E01009906846FEF7A6FA29
:102B800008B172B6FEE70F20CDE90A064FF4806067
:102B9000CDE90C5002210AA80E95FEF79BF908B169
:102BA00072B6FEE74FF40070CDE90F400FA8FEF7B4
:102BB0001BF9002801D072B6FEE716B070BD704751
:102BC00070B5064600214FF4A0734FF4F07208462A
:102BD00000F05CF96420FDF797FE044D00243046B8
:102BE00000F0A8FA641CAC42F9D370BDC8580200CA
:102BF0002DE9F05F0D460146541ADDF82890A3EB4D
:102C00000500A2EB01020646C2F1000201D42746EC
:102C100000E017465B1B5B42002800DA184687423B
:102C200003DD200004D5104602E0300000D5184630
:102C300007460846FDF7CBFB83462846FDF7C7FB52
:102C400082463846FDF7BAFB05462046FDF7B6FB3F
:102C50002946FDF775FB80462C463046FDF7AEFB56
:102C60002146FDF76DFB0546002416E05046FDF7B2
:102C7000B3FB86B25846FDF7AFFB80B24A463146F9
:102C800000F00FF841465846FDF702FB83462946FF
:102C90005046FDF7FDFA8246641CBC42E6DDBDE805
:102CA000F09F10B51446B0F5F07F0BD2B1F5A07FC0
:102CB00008D20B46024600F0E9F82046BDE8104075
:102CC00000F038BA10BD08B5684600F09BF800F077
:102CD000ABF8012000F07EF97820FDF715FE1120F9
:102CE00000F078F97820FDF70FFE3A2000F072F935
:102CF000552000F0C7F9362000F06CF9482000F0AC
:102D0000C1F9012000F0A6F8292000F063F9142091
:102D1000FDF7FAFD4FF6FF70FFF752FF08BD000008
:102D20002DE9F041344E0122002411463046FDF7D2
:102D300022FF4FF48058002241463046FDF71BFF2A
:102D40002E4D002210212846FDF715FF0A20FDF721
:102D5000DBFD4FF480412846FDF708FF012800D134
:102D600001244FF400412846FDF700FF012801D15E
:102D700044F0020401212846FDF7F8FE012801D1A4
:102D800044F0040402212F462846FDF7EFFE0128F7
:102D900001D144F008041A4D80212846FDF7E6FED3
:102DA000012801D144F010044FF480712846FDF74A
:102DB000DDFE012801D144F020044FF400712846C3
:102DC000FDF7D4FE012801D144F040044FF48061A6
:102DD0002846FDF7CBFE012801D144F080040122F2
:102DE00010213846FDF7C7FE012241463046FDF767
:102DF000C2FE2046BDE8F0810020014000140140E1
:102E00000018014010B50446D32000F0E3F8FFF7A6
:102E100087FF2070FFF784FF6070FFF781FFA070CD
:102E2000FFF77EFFE07010BD10B5094C00220421B1
:102E30002046FDF7A0FE6420FDF766FD0122042177
:102E40002046FDF798FEBDE810406420FDF75CBD0C
:102E50000018014010B50C494824087058B10128E9
:102E600004D0022804D0032805D103E0282402E07E
:102E7000882400E0E824362000F0ACF82046BDE8C5
:102E8000104000F0FFB80000000000202DE9F041E4
:102E900007461C4615460E462A2000F09BF8380AC5
:102EA00000F0F0F8F8B200F0EDF8280A00F0EAF8C7
:102EB000E8B200F0E7F82B2000F08CF8300A00F0C0
:102EC000E1F8F0B200F0DEF8200A00F0DBF8E0B242
:102ED00000F0D8F8BDE8F0412C2000F07BB80000ED
:102EE0002DE9FF4F83B0203A119D80460290602A61
:102EF00047D205B901252449D0B201EBC0004FF0FB
:102F0000000A019010F80A704FF000094FEAD71B31
:102F10007806070E002618E004980024304400903C
:102F20000FE000BF0098BBF1000F81B208EB040076
:102F300080B201D0069A00E0109AFFF7B2FE641C3E
:102F4000E4B2AC42EED3761CF6B2AE42E4D308EB68
:102F500005001FFA80F809F1010000F0FF09B9F13E
:102F6000080FD3D30498DDF80880284480B2049079
:102F70000AF1010000F0FF0ABAF1080F01D201982E
:102F8000C0E707B0BDE8F08F045A00082DE9FC4700
:102F90000F46DDE90A950446684240F2DF119A4681
:102FA000164601EBC00810E0CDE9009553463946BE
:102FB0002046FFF795FF04EBC50084B2761CA045C0
:102FC00003DA07EB0510002487B23278002AEBD130
:102FD000BDE8FC872DE9F041274D04460022012180
:102FE0002846FDF7C8FDAE14002231462846FDF7FD
:102FF000C2FDDFF88880002220214046FDF7BBFD9E
:1030000004F00102B1004046FDF7B5FDC4F34002F3
:10301000F1004046FDF7AFFDC4F3800201214046B8
:10302000FDF7A9FDC4F3C00202214046FDF7A3FD50
:10303000134FC4F3001280213846FDF79CFDC4F302
:103040004012A9153846FDF796FDC4F380126915A4
:103050003846FDF790FDE20929153846FDF78BFD4E
:10306000012220214046FDF786FD31462846BDE875
:10307000F0410122FDF77FBD002001400014014016
:10308000001801402DE9F041274D04460122114668
:103090002846FDF770FDAE14002231462846FDF7A4
:1030A0006AFDDFF88880002220214046FDF763FD9D
:1030B00004F00102B1004046FDF75DFDC4F340029B
:1030C000F1004046FDF757FDC4F380020121404660
:1030D000FDF751FDC4F3C00202214046FDF74BFD50
:1030E000134FC4F3001280213846FDF744FDC4F3AA
:1030F0004012A9153846FDF73EFDC4F3801269154C
:103100003846FDF738FDE20929153846FDF733FD4D
:10311000012220214046FDF72EFD31462846BDE81C
:10312000F0410122FDF727BD0020014000140140BD
:10313000001801402DE9F05F434D0446012211467D
:103140002846FDF718FD0022A9142846FDF713FDB7
:10315000002220213D48FDF70EFD4FF4804604F08B
:10316000010231463948FDF706FD7700C4F34002FD
:1031700039463648FDF7FFFCC4F38002012133488D
:10318000FDF7F9FCC4F3C00202213048FDF7F3FC5F
:10319000DFF8BC80C4F3001280214046FDF7EBFC51
:1031A0004FF48079C4F3401249464046FDF7E3FCF2
:1031B0004FF4007AC4F3801251464046FDF7DBFC21
:1031C0004FF4806BC4F3C01259464046FDF7D3FC60
:1031D000C4F30022E9144046FDF7CDFCC4F34022BD
:1031E000A9144046FDF7C7FCC4F380226914404689
:1031F000FDF7C1FCC4F3C02231464046FDF7BBFCDD
:10320000C4F3003239464046FDF7B5FCC4F3403202
:1032100049460E48FDF7AFFCC4F3803251460B48D7
:10322000FDF7A9FCE20B59460848FDF7A4FC012272
:1032300020210648FDF79FFC2846BDE8F05F0122EB
:103240001103FDF798BC000000200140001401406C
:10325000001801400148FEF746BA00007C0100203A
:10326000F0B50268204C214D214E224F224B4FF0E9
:10327000804CA04209D0984207D0604505D0A842B2
:1032800003D0B04201D0B84204D122F0700E4A6897
:1032900042EA0E02A04209D0984207D0604505D00C
:1032A000A84203D0B04201D0B84203D122F4407505
:1032B000CA682A434D6922F080022A4302608A6864
:1032C000C2620A688262A04201D0984201D10969B3
:1032D0000163012141610169C90703D0016921F03E
:1032E00001010161F0BD0000002C0140000400401C
:1032F00000080040000C0040003401401CB5154E91
:10330000DFF8549000254FF47A774FF0010800BFA2
:1033100000F0CAFB0446401BB84216D300220D49F8
:103320000E48FEF78AF800220D490C48FEF75EF8B9
:10333000B1787078CDE9000133780AA210210D48E8
:1033400000F0D6F889F800802546012000F09FFBA8
:10335000DEE70000F900002000010020200100202D
:10336000FC000020253032643A253032643A2530A2
:10337000326400001001002010B501F0AFF9002800
:1033800005D0D0E90021BDE810400846104710BD27
:1033900070B5044600680169E26821F440511143A8
:1033A00001612169A0680843616908432168CA680E
:1033B00041F20C639A430243CA6020684169A269E2
:1033C00021F44071114341611E492068884202D1B5
:1033D000FDF746FE01E0FDF733FE00EBC00101EB17
:1033E0000012606864218000B2FBF0F3B3FBF1F3DC
:1033F0006FF018067343B2FBF0F5B2FBF0F605EB85
:103400008305322303EB0515B5FBF1F5B6FBF1F6A9
:1034100005F0F00505EB0615B2FBF0F6B2FBF0F097
:10342000B0FBF1F06FF01802504306EB800003EBA5
:103430000010B0FBF1F0216800F00F002844886014
:1034400070BD000000380140FEE700001CB5274CAD
:10345000C821206C00F0BCFC4FF0FF352B46002249
:103460006946206B00F056FB88BB9DF800000B28D6
:1034700038D2DFE800F037060C0F12091821292D89
:103480003100BDF8020020E09DF8040021E0FEF7C5
:1034900037FE27E0FEF72CFE24E09DF80420BDF85F
:1034A000020096211CE04FF49670FDF744F80122CB
:1034B00000214FF47A7013E00320FDF747F8012252
:1034C00096214FF4FA600BE06420FDF734F809E030
:1034D0000220FDF73BF805E04FF4FA7005220146A3
:1034E000FEF7EAFD012000F0D2FAB7E70400002061
:1034F0000FB47CB50C0009AD01D0611E00E00021C5
:10350000CDE90001064B6A462946089800F02AF8E2
:10351000002C02D0009A002111707CBC5DF814FBD5
:10352000A73800080907090E002804DB00F1E02095
:1035300080F80014704700F00F0000F1E02080F8E0
:10354000141D704702E008C8121F08C1002AFAD1F2
:1035500070477047002001E001C1121F002AFBD113
:10356000704700002DE9FF4F8BB0884605460026C6
:1035700006E025280BD0DDE90D1290476D1C761C66
:1035800028780028F5D10FB03046BDE8F08F002430
:10359000A146A2460122AE4900E0044315F8013FCE
:1035A000203B02FA03F00842F7D128782A2810D0ED
:1035B0006FF02F022878A0F13001092915D809EB06
:1035C000890102EB410144F0020400EB01096D1C8A
:1035D000F0E758F8041B5FEA010903D544F40054EE
:1035E000C9F1000944F002046D1C28782E2817D177
:1035F00015F8010F44F004042A280ED06FF02F02B2
:103600002878A0F1300109290AD80AEB8A0102EBD7
:10361000410100EB010A6D1CF2E758F804AB6D1C88
:1036200028786C280FD006DC4C2817D068280DD0DD
:103630006A2814D104E0742810D07A280FD10DE044
:1036400044F400140AE044F4801401E044F440140B
:103650006978814202D104F580146D1C6D1C2878B4
:10366000692865D006DC00288DD0632827D064281F
:1036700006D15DE06E2808D073282AD0752877D04F
:10368000DDE90D129047761CE0E0C4F302500228F9
:1036900009D003280DD0D8F8001004280DD00E60F2
:1036A00008F10408D2E0D8F80010F217C1E900626E
:1036B000F6E7D8F800100E80F2E70E70F0E718F881
:1036C000041B8DF8001000208DF80100EB4601204E
:1036D00003E058F804BB4FF0FF3061074FF00007DC
:1036E00001D40AE07F1C57450DDA8742FADB1BF84C
:1036F00007100029F6D106E07F1C8742FCDB1BF88F
:1037000007100029F8D1DDE90D23A9EB0700814658
:10371000214600F0B1F83044C61904E0DDE90D128D
:103720001BF8010B90477F1EF8D22146484688E0DF
:1037300058F8040BC4F302514FF00A0B032900D1CF
:1037400000B2042900D140B2002802DA40422D2103
:1037500002E0210505D52B218DF82410012104E07C
:1037600006E0E10710D02021F6E708AF089113E04A
:1037700058F8040BC4F302514FF00A0B032900D18F
:1037800080B2042900D1C0B20021EEE75946FCF70F
:1037900037FE303107F8011D0028F7D1ADEB0700E7
:1037A00000F1200B600702D524F4803401E04FF0D3
:1037B000010ADA4502DDAAEB0B0000E00020824698
:1037C00000EB0B0108980144A9EB01000A90E0030B
:1037D00006D4DDE90D2321460A9800F04DF8064491
:1037E0004FF0000908E009A911F80900DDE90D1200
:1037F000904709F10109761C08998945F3DBE0033C
:103800000CD5DDE90D2321460A9800F035F8064471
:1038100004E0DDE90D1230209047761CBAF100017A
:10382000AAF1010AF5DC05E0DDE90D1217F8010B3C
:103830009047761CBBF10001ABF1010BF4DC0A9858
:103840002146DDE90D2300F005F806446D1C97E6DE
:10385000092801002DE9F041044600251E461746BF
:10386000880404D405E039462020B0476D1C641E4E
:10387000F9D52846BDE8F0812DE9F0410446002540
:103880001E469046C80301D5302700E02027880453
:1038900004D505E041463846B0476D1C641EF9D595
:1038A0002846BDE8F0814A68002A06D00A68531C01
:1038B0000B6010704868401E486070470122D103B9
:1038C0000148FDF758B90000000801402DE9F04F0C
:1038D0000025DFF874915D4FDFF874A193B04FF0CD
:1038E0000108AB460122F0213846FDF744F935B115
:1038F000012D07D0022D0FD0032D08D10FE000229B
:10390000102101E0002220213846FDF734F905207E
:1039100000F0BDF800240EE000224021F4E7002270
:103920008021F1E7002634B1012C06D0022C06D00C
:10393000032C07D105E0012604E0022602E004265C
:1039400000E0082631463846FDF710F970BB8DF8C7
:103950004480D9F8000020B100231A4611A900F0D4
:1039600037F931463846FDF701F90028F9D005202E
:1039700000F08DF8374800EB8500005D2A2816D04E
:10398000412825D0422831D0642851D065284FD015
:1039900066284DD067284BD09AF8001006293FD2F0
:1039A0002D4B585401F101018AF800103CE09AF8BF
:1039B0000010A1B3284A02F801B0A1F1010111F0F1
:1039C000FF018AF8001033D11046FEF7E1F92FE02D
:1039D0002249214A4046A1F80080C2F800B0A2F86E
:1039E00004B082F806B08AF800B009E01A48C0F8BE
:1039F00000B0A0F804B080F806B08AF800B0022049
:103A00008DF8000040210DF10100FCF714FC144872
:103A1000006820B100231A46694600F0D9F807E093
:103A200002D10D4981F806B0641C042CFFF67AAF70
:103A30006D1C042DFFF656AF13B03846BDE8F04FAD
:103A40000022F021FDF797B840000020001001404F
:103A5000F7000020FC5C0008F000002008000020B7
:103A600038000020012000F012F8FBE7FDF796F87F
:103A7000FFF765F8FEF7A2FBFEF798FCFEF7AEFC39
:103A800000F01AF8FEF750FB00F028F8FEE710B53A
:103A9000EFF3058111B16FF0050403E0002408B1D4
:103AA00000F080FF204610BDEFF3058008B101F063
:103AB00091BD01F089BD0000EFF3058010B16FF0FA
:103AC000050070470448016811B14FF0FF3070479E
:103AD0000121016000207047B400002010B5EFF311
:103AE000058010B16FF0050010BD0848016801297C
:103AF00002D04FF0FF3010BD054A002182F8141D9E
:103B00000221016001F046F8002010BDB400002041
:103B10000BE000E0F8B51D466FF003026FF00206FF
:103B20004FF00004EFF30583A3B1F0B1E9B1E5B9BB
:103B3000002200926A4601F077FB012817D1009815
:103B4000B0B10C494FF080500860BFF34F8FBFF306
:103B50006F8F0DE048B141B12A4601F0C9FA012842
:103B600006D025B16FF0010402E0144600E03446AF
:103B70002046F8BD04ED00E0F8B514464FF000050E
:103B8000EFF3058212BB08B301B3A4B1D4E902324A
:103B900063B1502A1AD32269C2B1676900FB01F6EA
:103BA000B74213D3009501F0FEF807E072B922691D
:103BB00062B9626952B9002201F0D4F8050005D05B
:103BC0000CB1216800E0002100F0B6FE2846F8BDE7
:103BD000F8B51D466FF003026FF002064FF00004C7
:103BE000EFF30583ABB100B3F9B1F5B90022134689
:103BF00000926A4601F0FEF9012818D10098B8B188
:103C00000C494FF080500860BFF34F8FBFF36F8FA8
:103C10000EE050B149B100232A4601F03BF90128DA
:103C200006D025B16FF0010402E0144600E03446EE
:103C30002046F8BD04ED00E02DE9F0410D460146B7
:103C400021F0010001F001014FF00004EFF30582C3
:103C50000AB1A41F16E048B100296FF001066FF009
:103C60000207294608D001F0E9FB07E06FF00304E2
:103C700008E035B1344605E001F024FB0128F8D115
:103C800000E03C462046BDE8F08170B5014621F0D9
:103C9000010001F001014FF00004EFF305820AB1C9
:103CA000A41F11E028B16FF0020529B101F001FA5B
:103CB00007E06FF0030407E000231A46194601F0FD
:103CC000E9F8012800D02C46204670BD2DE9FF41BF
:103CD0004FEA01034FF00005EFF30581039549BB5F
:103CE00040B38027182100244AB3166806B1344631
:103CF00096691EB13146761E382E02D21679F60725
:103D000003D0002004B0BDE8F081566906B1B708C1
:103D1000D2F808C0BCF1000F0DD0D5685C2D18D3C7
:103D200012693AB136B18DE806103A46214601F0E3
:103D30000CFC03900DE0D6685EB912694AB903AA7B
:103D4000CDE90012BAB2214601F0D2FB012800D021
:103D500003950398D6E700002DE9FC471C469046E2
:103D6000894607464FF00006EFF3058058BB57B36E
:103D7000082000F039FC050025D0C5E90078B9F12C
:103D8000000F12D00122114B002094B1216801B123
:103D90000846A16859B1E4682C2C11D3CDE9003153
:103DA0002B46012101F0B2FD08E00022EBE7E168BB
:103DB00031B900932B46012101F08EFD060002D19E
:103DC000284600F04BFD3046BDE8FC8779330008FB
:103DD00008B5EFF3058212B16FF0050008BD58B1C8
:103DE0000022134600920A46042101F0D7FD012863
:103DF00005D06FF0020008BD6FF0030008BD002081
:103E000008BD00002DE9F041134C0F460546E66859
:103E10002068001D00F092FC681C07D137B12168B2
:103E2000BDE8F0410D48091D00F0D8BC20683544BC
:103E3000B5424560216805D2A06BBDE8F041091D7F
:103E400000F0B4BC606B091D00F0B0FCA06A8542B4
:103E500000D2A562BDE8F08164000020B406002015
:103E60002DE9F041054600F0C5FC2D4CA068401C32
:103E7000A06020682B4F10B1606930B32BE0256043
:103E8000A068012827D1002606EB860007EB8000FA
:103E900000F07EFC761C382EF6D3234800F078FC28
:103EA0002148143000F074FC1F48283000F070FCEA
:103EB0001D483C3000F06CFC1B48503000F068FCA2
:103EC000194860631430A06305E02068E96AC06A9D
:103ED000884200D82560606A401C60626864E86AB5
:103EE0002169884200D9206100EB800007EB800047
:103EF000291D00F073FC00F09DFC606900280CD0C7
:103F00002068E96AC06A884207D208494FF08050A9
:103F10000860BFF34F8FBFF36F8FBDE8F0810000E3
:103F200064000020040200206406002004ED00E08C
:103F300038B500F05FFC104C2068C8B90F4800F09D
:103F400027FC0E48143000F023FC0C48E0601430CD
:103F500020610A4B0020F03B009003F15002102139
:103F60000A2000F020FF206010B105A100F0E4FC61
:103F7000BDE8384000F05EBCA0000020B80700207B
:103F8000546D72510000000030B4026C0B46002AE0
:103F90000BD0C1681144C1608468A14201D301689B
:103FA000C16030BC1846FCF72DB930BC70472DE914
:103FB000F041856B174604460026026C82B1C7B1FA
:103FC000E068FCF71FF9E168206C091AE1602268DB
:103FD000914202D2A168081AE060022F16D017E0C1
:103FE0002068A8B9A06801F061FB06460020A06027
:103FF0000EE06068FCF706F9216C606808446060B8
:10400000A168884204D32068606001E005B16D1E9C
:104010006D1CA5633046BDE8F08110B5044690F8EC
:10402000590058B101280CD002280FD0502080F33D
:104030001188BFF34F8FBFF36F8FFEE7206B00F047
:104040000DFC2046BDE8104000F008BC10BD00008B
:1040500010484FF40041420706D0C01D0D4920F022
:104060000700411AC1F500410B4A00230144C2E98F
:1040700000030839183A21F0070111604B600B600A
:104080000B1AC0E9001393604FF000405360506179
:1040900070470000980E0020D0000020144E154CF0
:1040A000A6F29C474FF08058DFF84C9012E000BF1A
:1040B00000F0A0FBF068C568281D00F03FFBA06879
:1040C000401EA0606068401E606000F0B3FB2846A0
:1040D000FFF7A3FF60680028EAD138680128F9D902
:1040E000C9F80080BFF34F8FBFF36F8FF2E7000076
:1040F000A00600206400002004ED00E070B51D461D
:10410000049C51B1C4F80020C4E90F0101212046EC
:1041100000F07CFE84F84C5070BD2460F4E7000091
:104120002DE9F05F8846DDE90B9415468346910042
:104130009A460A9EA522206BFCF776F86FF00301E1
:10414000206B01EB8501084420F00707780707D0B2
:10415000502080F31188BFF34F8FBFF36F8FFEE7BE
:104160000025B8F1000F0FD05FF00000221818F8FA
:10417000001082F8341018F8001011B1401C1028FB
:10418000F4D384F8435001E084F83450382E00D33F
:104190003726E662C4E91365201D00F004FB04F134
:1041A000180000F000FB2461C6F138006462A061D1
:1041B000656584F8585052465946384600F0A0FAD2
:1041C0002060B9F1000F01D0C9F80040BDE8F09FB0
:1041D0002DE9F0471E46DDE9089417460D0080469C
:1041E00015D0002C11D0FFF7A3FE04F11801C4F87C
:1041F000008081E86002201D00F0D5FA002F04D075
:1042000014F8280F40F004002070BDE8F08750201B
:1042100080F31188BFF34F8FBFF36F8FFEE700006D
:1042200030B5114900E011460A688242FBD34B6861
:104230005C18844203D140681844486008464368CB
:104240001C18944209D1084C183C2468A24209D099
:1042500052681A4442600A6812680260814200D0C3
:10426000086030BD0460F9E7D000002070B500247C
:1042700041600B4D0061914206D8D11A826991428A
:1042800006D2011D286907E09A4203D2994201D360
:10429000012403E0011DE86800F088FA204670BDA3
:1042A000A000002010B5044600F0A4FAA06B28B1CD
:1042B0005FF0000400F0BEFA204610BD0124F9E7CB
:1042C00030B589B03C4D6EE00498002806DADDE98F
:1042D0000601059A90470498002864DB069C6069F3
:1042E00010B1201D00F02AFA03A800F0D7F802460A
:1042F00004980A2857D2DFE800F00505052D334A57
:1043000005052D3394F8280040F0010084F82800BA
:104310000599A069059B01442046FFF7A7FF68B3F4
:10432000216A2046884794F8280040073BD50020A2
:1043300000900598A169002342181946204601F013
:104340002DFBD8B9502080F31188BFF34F8FBFF3F6
:104350006F8FFEE714F8280F20F00100207022E094
:1043600094F8280040F0010084F828000598A06126
:1043700028B1811813462046FFF778FF13E050203C
:1043800080F31188BFF34F8FBFF36F8FFEE794F870
:104390002800810703D4204600F060FA03E020F0F3
:1043A000010084F82800002204A9286800F0A0FE7B
:1043B000002889D109B030BDA00000202DE9FC41C2
:1043C0000F46054600F02AFC01A800F067F80446F5
:1043D000019818B101F01EFABDE8FC81254EAFB17D
:1043E00030690068D0B30027291B3A46306800F0D6
:1043F000B7FA01F00FFA0028EED11F494FF08050B4
:104400000860BFF34F8FBFF36F8FE5E7A542EBD88E
:1044100001F000FAF0682746C068C468201D00F06B
:104420008DF994F82800410719D5A0692B46411948
:104430003A462046FFF71AFFA8B10020034601467E
:1044400000902A46204601F0A9FA60B9502080F376
:104450001188BFF34F8FBFF36F8FFEE707E020F0A7
:10446000010084F82800216A20468847B4E7012724
:10447000BAE70000A000002004ED00E00648416B10
:10448000096829B1416BC968C96849688162704788
:104490004FF0FF31FAE700006400002070B50546D8
:1044A00001F092F8064E0446B068844203D200F050
:1044B00009F8012000E0002028602046B46070BDAB
:1044C000A0000020F8B5194D20E0C068C468066857
:1044D000201D00F033F9216A2046884794F828000F
:1044E000400713D5A0693044B04206D9246160600A
:1044F000211DE86800F05AF908E000200346014653
:1045000000903246204601F049FA38B1E868016867
:104510000029DAD12969C5E90310F8BD502080F3DC
:104520001188BFF34F8FBFF36F8FFEE7A00000200D
:1045300008484068401C4FF0500080F3118804D0B8
:10454000BFF34F8FBFF36F8FFEE7BFF34F8FBFF304
:104550006F8FFEE7D8000020074CE068016841B18A
:10456000C0680021D0F80000FFF728FFFFF7A8FE81
:10457000F3E701210020F7E7A00000202DE9F0413A
:10458000044600F037F994F9455004F1240609E097
:10459000606A48B1304601F005F908B100F078FAD8
:1045A0006D1E6DB2002DF3DC4FF0FF3684F84560D0
:1045B00000F040F900F01EF994F9445004F110079E
:1045C00009E0206948B1384601F0ECF808B100F084
:1045D0005FFA6D1E6DB2002DF3DC84F84460BDE817
:1045E000F04100F027B900002DE9F0410546002711
:1045F00000F014FB324E306808B9FFF729FD7069EE
:1046000005424ED1C5B3083568070ED005F0070046
:10461000C0F108000544680707D0502080F31188D6
:10462000BFF34F8FBFF36F8FFEE72DB370688542E6
:1046300037D82348183001460C6801E020460C4664
:104640006168A94202D221680029F7D131688C4201
:1046500027D007682168016060680837411B10296E
:104660000FD96019420708D0502080F31188BFF39A
:104670004F8FBFF36F8FFEE713E041606560FFF778
:10468000CFFD61687068401A7060B268904200D2D5
:10469000B060706901430020C4E90001F068401C6B
:1046A000F06001F0B7F8780707D0502080F3118848
:1046B000BFF34F8FBFF36F8FFEE73846BDE8F08141
:1046C000B80000200449086818B10868026D521C3F
:1046D00002650868704700006400002010B50400FF
:1046E00006D000F087F8E46900F0A4F8204610BD79
:1046F000502080F31188BFF34F8FBFF36F8FFEE719
:1047000010B5031F4FF080741C601B1F21F00101C6
:104710001960191F024B0B60143940380A6010BD34
:1047200031450008034900200860888088710249EB
:1047300008707047F0000020F7000020D0E9013237
:1047400001699A60D0E901235A604A68824201D126
:1047500082684A60002202610868401E086008689A
:1047600070470000034B036003F15C000860802089
:1047700010607047E0070020044B036003F15C0009
:1047800008604FF480701060704700003C0A002001
:1047900000F108014FF0FF32C0E90112C160016170
:1047A00000210160704700210161704730B50B683E
:1047B0005A1C02D000F1080202E0026904E022461D
:1047C000546825689D42FAD953684B6099608A60A5
:1047D000516008610168491C016030BD42684A604F
:1047E00093688B6093685960916008610168491C07
:1047F00001607047502080F31188BFF34F8FBFF3E3
:104800006F8F0A494868401C486001280CD108484D
:10481000006810F0FF0F07D0502080F31188BFF31D
:104820004F8FBFF36F8FFEE770470000D800002066
:1048300004ED00E00849486828B1401E486001D1F5
:1048400080F311887047502080F31188BFF34F8F99
:10485000BFF36F8FFEE70000D800002070B500287E
:104860002AD0164DA0F1080460686969084207D192
:10487000502080F31188BFF34F8FBFF36F8FFEE797
:1048800022683AB1502080F31188BFF34F8FBFF3F5
:104890006F8FFEE78843606000F0C0F96068696868
:1048A000084468602046FFF7BBFC2869401C28616B
:1048B000BDE8704000F0AEBF70BD0000B800002041
:1048C0004FF0E02000210161816105494FF47A72C7
:1048D0000968B1FBF2F1491E41610721016170478E
:1048E0006000002010B5FBF777FC114910280ED3AB
:1048F00000F1E02090F8F0030A78904207D25020AF
:1049000080F31188BFF34F8FBFF36F8FFEE7094825
:104910000068896800F4E060884207D9502080F37D
:104920001188BFF34F8FBFF36F8FFEE710BD0000FC
:10493000D80000200CED00E010B5084B002200BFAD
:1049400053F832401CB1521C082AF9D310BD43F869
:10495000321003EBC201486010BD0000C40100200A
:1049600070B515460E460446FFF744FF94F944100F
:104970000020491C01D184F8440094F94510491CD9
:1049800001D184F84500FFF755FFA06B28B92A46EE
:10499000314604F1240000F099F82046BDE870404B
:1049A000FFF7ECBD10B5020014D00F48006B38B112
:1049B000502080F31188BFF34F8FBFF36F8FFEE756
:1049C00000F02CF900211046FFF71CFA00F022FF3E
:1049D000002807D105494FF080500860BFF34F8F82
:1049E000BFF36F8F10BD00006400002004ED00E0F5
:1049F00070B50546FFF7FEFE1E4C05B92568281D5B
:104A0000FFF79CFEA86A18B105F11800FFF796FEA3
:104A1000606A401C60622068854207D1291D1648E3
:104A2000FFF7DCFE6068401C606007E0A068401E85
:104A3000A0602846FFF7F1FAFFF720FDFFF7FAFE26
:104A40006069002814D02068854211D1206B38B1EC
:104A5000502080F31188BFF34F8FBFF36F8FFEE7B5
:104A600006494FF080500860BFF34F8FBFF36F8F40
:104A700070BD000064000020A006002004ED00E0EE
:104A800002490A6A0260C9684160704764000020F8
:104A900001490120C86170476400002010B50C4630
:104AA00050B1094909681831FFF780FE2046BDE87A
:104AB00010400121FFF7A6B9502080F31188BFF301
:104AC0004F8FBFF36F8FFEE76400002070B5144670
:104AD0000D4668B10A4909681831FFF77FFE0CB12D
:104AE0004FF0FF3521462846BDE87040FFF78AB9F0
:104AF000502080F31188BFF34F8FBFF36F8FFEE715
:104B00006400002070B504003ED0226DA2B1E06CBC
:104B1000884200D30146E06A884235D0012A33D169
:104B20001A4D2A6894420FD1502080F31188BFF3A8
:104B30004F8FBFF36F8FFEE7502080F31188BFF3D4
:104B40004F8FBFF36F8FFEE7E162A269002A02DB9D
:104B5000C1F13801A1610E4E00EB8000616906EBE6
:104B60008000814210D1201DFFF7E8FDE06A29692D
:104B7000884200D9286100EB800006EB8000211DEF
:104B8000BDE87040FFF72ABE70BD00006400002041
:104B90000402002030B587B00024039405AA04A9BC
:104BA00003A80494FFF7DEFDDDE903010094CDE9DD
:104BB0000110002315A11748059A00F0C6FC164DF8
:104BC0000028E8621FD000F0B9FE012809D0401C7F
:104BD00019D1502080F31188BFF34F8FBFF36F8F2F
:104BE000FEE7502080F31188BFF34F8FBFF36F8F24
:104BF0004FF0FF30A86201206861EC6007B0BDE8AB
:104C0000304000F045B807B030BD000049444C4585
:104C1000000000009D400008640000200248016B75
:104C2000491C01637047000064000020164810B55D
:104C3000016B11B10121C16110BD0021C161016988
:104C4000124A01E0B9B1491E01EB810352F8233049
:104C5000002BF7D001EB810302EB830202F1080481
:104C600053685B685360A34201D15B685360DA68A4
:104C70000260016110BD502080F31188BFF34F8F97
:104C8000BFF36F8FFEE700006400002004020020E5
:104C90001CB5264908780190FF20087008788DF827
:104CA00000009DF800009DF8002000F0F000904208
:104CB00007D0502080F31188BFF34F8FBFF36F8F61
:104CC000FEE79DF800001A4C00F05000207007200D
:104CD000A06005E09DF8002052008DF80020401EE5
:104CE0009DF800201206F5D4A060032807D05020BC
:104CF00080F31188BFF34F8FBFF36F8FFEE74FF440
:104D00004070A060019808700A48016841F4700181
:104D10000160016841F070410160FFF7D1FD0020A2
:104D20006060FBF723FA00201CBD000000E400E0F7
:104D3000D800002020ED00E010B5502080F311884D
:104D4000BFF34F8FBFF36F8F00F04CFC18B10449D5
:104D50004FF080500860002080F3118810BD0000E3
:104D600004ED00E0F8B517460E46050013D005FB2C
:104D700006F05030FFF738FC04000AD0002084F819
:104D8000460004F150023B46314628460094FFF7A6
:104D9000B5F92046F8BD502080F31188BFF34F8F3E
:104DA000BFF36F8FFEE738B5049D18B153B1CAB198
:104DB00081B120E0502080F31188BFF34F8FBFF303
:104DC0006F8FFEE7502080F31188BFF34F8FBFF342
:104DD0006F8FFEE7502080F31188BFF34F8FBFF332
:104DE0006F8FFEE739B1502080F31188BFF34F8FEA
:104DF000BFF36F8FFEE750241C46012384F8463032
:104E00002B460094FFF77AF9204638BD70B50D4661
:104E1000040025D0FFF7EEFCD4E90F20216802FB47
:104E20000011A1600021A163216861600A46D4E9F4
:104E30000F01401E00FB0121E16021464FF0FF30D1
:104E400001F8440F487004F110008DB1FFF7A0FC89
:104E500004F12400FFF79CFCFFF7ECFC012070BD7F
:104E6000502080F31188BFF34F8FBFF36F8FFEE7A1
:104E700021690029F0D000F095FC0028ECD004490D
:104E80004FF080500860BFF34F8FBFF36F8FE3E7A1
:104E900004ED00E02DE9FF4782B01D468A464FF041
:104EA0000008040003D0BAF1000F08D011E0502030
:104EB00080F31188BFF34F8FBFF36F8FFEE7206C35
:104EC00038B1502080F31188BFF34F8FBFF36F8F3D
:104ED000FEE7022D0AD1E06B012807D0502080F3B5
:104EE0001188BFF34F8FBFF36F8FFEE700F05EFBBB
:104EF0003F4F4FF000094FF0805648B9049838B141
:104F0000502080F31188BFF34F8FBFF36F8FFEE700
:104F1000FFF770FCA06BE16B884207D3022D05D030
:104F20000498D0B1B8F1000F1AD01EE02A465146BD
:104F30002046FFF73CF8616A19B104F1240000F043
:104F400031FC20B13E60BFF34F8FBFF36F8FFFF78F
:104F500071FC012006B0BDE8F087FFF76BFC22E092
:104F60006846FFF78DFD4FF00108FFF763FCFFF780
:104F700055FEFFF73FFC94F94400401C01D184F832
:104F8000449094F94500401C01D184F84590FFF706
:104F900051FC04A9684600F071FA30B12046FFF7D1
:104FA000EDFA00F037FC0020D4E7FFF723FCA06BFC
:104FB000E16B884213D1FFF73DFC04F11000049926
:104FC000FFF76CFD2046FFF7D9FA00F023FC00281C
:104FD0009ED13E60BFF34F8FBFF36F8F98E7FFF70F
:104FE00029FC2046FFF7CAFA00F014FC90E7000005
:104FF00004ED00E02DE9F0471F4690468946040085
:1050000003D0B9F1000F08D011E0502080F31188CF
:10501000BFF34F8FBFF36F8FFEE7206C38B1502086
:1050200080F31188BFF34F8FBFF36F8FFEE7022F1E
:105030000AD1E06B012807D0502080F31188BFF31C
:105040004F8FBFF36F8FFEE7FFF74CFC5020EFF35D
:10505000118680F31188BFF34F8FBFF36F8FA06B62
:10506000E16B884206D3022F04D0002086F311881A
:10507000BDE8F08794F94550A06B3A464946204672
:10508000FEF795FF681C04D06D1C84F84550012084
:10509000ECE7606A0028FAD004F1240000F082FBFB
:1050A0000028F4D0B8F1000FF1D00121C8F80010A9
:1050B000EDE710B5040009D000F072FAA16888424B
:1050C00014D1E068401EE06008D00DE0502080F36D
:1050D0001188BFF34F8FBFF36F8FFEE700231A468F
:1050E00019462046FFF7D6FE012010BD002010BD56
:1050F0002DE9F747002683B08A46040003D0BAF1B1
:10510000000F08D011E0502080F31188BFF34F8FBB
:10511000BFF36F8FFEE7206C38B1502080F3118809
:10512000BFF34F8FBFF36F8FFEE700F03FFADFF85A
:10513000F4804FF000094FF0805748B9059838B116
:10514000502080F31188BFF34F8FBFF36F8FFEE7BE
:10515000FFF750FBA56BC5B151462046FEF714FF83
:105160006D1EA563206950B104F1100000F01AFB18
:1051700028B1C8F80070BFF34F8FBFF36F8FFFF7F0
:1051800059FB012006B0BDE8F087059808B11EB1B3
:1051900006E0FFF74FFB27E06846FFF771FC0126AA
:1051A000FFF748FBFFF73AFDFFF724FB94F94400B3
:1051B000401C01D184F8449094F94500401C01D171
:1051C00084F84590FFF736FB05A9684600F056F9CC
:1051D000002820460AD0FFF7D1F900F01BFB20463B
:1051E000FFF760F80028B3D00020CBE7FFF75AF8AC
:1051F00090B104F124000599FFF750FC2046FFF719
:10520000BDF900F007FB0028A2D1C8F80070BFF379
:105210004F8FBFF36F8F9BE72046FFF7AFF900F08A
:10522000F9FA95E704ED00E02DE9F047904689464C
:10523000040003D0B9F1000F08D011E0502080F332
:105240001188BFF34F8FBFF36F8FFEE7206C38B12B
:10525000502080F31188BFF34F8FBFF36F8FFEE7AD
:10526000FFF740FB5020EFF3118680F31188BFF366
:105270004F8FBFF36F8FA76BF7B194F94450494636
:105280002046FEF781FE7F1EA763681C04D06D1CBC
:1052900084F84450012010E020690028FAD004F17D
:1052A000100000F07FFA0028F4D0B8F1000FF1D020
:1052B0000121C8F80010EDE7002086F31188BDE851
:1052C000F08700002DE9F343002683B00400354643
:1052D00009D0206C78B1502080F31188BFF34F8F34
:1052E000BFF36F8FFEE7502080F31188BFF34F8F1D
:1052F000BFF36F8FFEE700F059F9DFF83C814FF004
:1053000000094FF0805748B9049838B1502080F315
:105310001188BFF34F8FBFF36F8FFEE7FFF76AFA75
:10532000A06BC8B1401EA063206810B9FFF7CAF98E
:10533000A060206950B104F1100000F033FA28B1E8
:10534000C8F80070BFF34F8FBFF36F8FFFF772FA8B
:10535000012005B0BDE8F083049808B166B10FE004
:105360003DB1502080F31188BFF34F8FBFF36F8F93
:10537000FEE7FFF75FFA5DE06846FFF781FB012675
:10538000FFF758FAFFF74AFCFFF734FA94F94400A4
:10539000401C01D184F8449094F94500401C01D18F
:1053A00084F84590FFF746FA04A9684600F066F8CD
:1053B0000028204612D0FFF7E1F800F02BFA204633
:1053C000FEF770FF0028A9D09DB3FFF713FA606ABB
:1053D00050B3206B0068C0F1380126E0FEF762FF91
:1053E000E0B1206838B9FFF705FAA06800F09EF92F
:1053F0000546FFF71FFA04F124000499FFF74EFB5E
:105400002046FFF7BBF800F005FA002886D1C8F85F
:105410000070BFF34F8FBFF36F8F7FE72046FFF71A
:10542000ADF800F0F7F979E70021A068FFF76AFB13
:105430009FE7FFE700208CE704ED00E070B50D4624
:10544000040009D000F0ACF8A16888420CD1E068F3
:10545000401CE060012070BD502080F31188BFF334
:105460004F8FBFF36F8FFEE729462046FFF72AFFD5
:105470000028F0D0E168491CE16070BD2DE9F041E1
:105480000C46050011D0C4B1FFF7B4F9174BDA6828
:105490006E682068911B471C17D02F681B6A9F42BB
:1054A00019D0964217D8012410E0502080F31188BB
:1054B000BFF34F8FBFF36F8FFEE7502080F311884B
:1054C000BFF34F8FBFF36F8FFEE70024FFF7B2F9F2
:1054D0002046BDE8F081884205D9401A2060284660
:1054E000FFF7CEFAF1E700202060DCE7640000203F
:1054F0002DE9FF5F8346DDE90E87994616468A4609
:105500009000FFF771F805001CD05C20FFF76CF8E5
:10551000040014D00020256384F85900CDE902402E
:10552000CDE900874B46324651465846FEF7F8FD16
:105530002046FEF795FC012004B0BDE8F09F284608
:10554000FFF78CF94FF0FF30F6E7F0B585B0DDE9F5
:105550000B640A9DA6B1DCB15C2700972663022686
:1055600084F85960002604AFCDE90246CDE9005722
:10557000FEF7D6FD2046FEF773FC049805B0F0BD9B
:10558000502080F31188BFF34F8FBFF36F8FFEE77A
:10559000502080F31188BFF34F8FBFF36F8FFEE76A
:1055A0000148006870470000640000200548416918
:1055B00019B1006B18B1002070470120704702201C
:1055C00070470000640000200148C0687047000078
:1055D0006400002010B5FFF785F90148C06810BDD0
:1055E000640000202DE9F0412E4C0027206B28B1EB
:1055F000A069401CA0613846BDE8F081E668761CD1
:10560000E66013D1606B006838B1502080F31188D8
:10561000BFF34F8FBFF36F8FFEE7606BA16B6163CA
:10562000A063206A401C2062FEF728FFA06ADFF812
:105630007880864209D3606B0068A0B1606BC06857
:10564000C5686868864211D2A0622068C06A00EB13
:10565000800158F82100012800D90127E0690028BD
:10566000C9D00127C7E74FF0FF30EDE7281DFFF74E
:1056700065F8A86A18B105F11800FFF75FF8E86A45
:105680002169884200D9206100EB800108EB81008C
:10569000291DFFF7A3F8E86A2168C96A8842CAD3BE
:1056A0000127C8E7640000200402002070B5040050
:1056B0004FF0000133D01B4D2868844207D05020A2
:1056C00080F31188BFF34F8FBFF36F8FFEE7206D1C
:1056D00038B1401E2065E36CE26A9A421FD040B1A7
:1056E0001DE0502080F31188BFF34F8FBFF36F8F01
:1056F000FEE7201DFFF722F8E06CE062C0F1380001
:10570000A061E06A2969884200D92861064900EB56
:10571000800001EB8000211DFFF760F801210846A1
:1057200070BD0000640000200402002070B5040079
:105730004FF000002BD0194DE16A2A68D26A9142DD
:1057400026D2A069002804DB2868C06AC0F13800AE
:10575000A061134E01EB8101606906EB8101884273
:1057600011D1201DFEF7EAFF2868C06AE0622969AE
:10577000884200D9286100EB800006EB8000211DE3
:10578000FFF72CF802E02868C06AE062012070BDD3
:10579000E16C2A68D26A9142F8D370BD640000209F
:1057A0000402002070B5C068C46854B104F1180048
:1057B0000646FEF7C3FF144D286B50B1314613481F
:1057C00015E0502080F31188BFF34F8FBFF36F8F28
:1057D000FEE7201DFEF7B2FFE06A2969884200D982
:1057E00028610B4900EB800001EB8000211DFEF7D2
:1057F000F5FFE06A2968C96A884202D90120E86198
:1058000070BD002070BD0000640000208C060020E8
:10581000040200202DE9F0472C4D00242746286B78
:1058200038B1FEF7E7FF286B401E2863286B40B1B4
:1058300046E0502080F31188BFF34F8FBFF36F8F86
:10584000FEE7A968224E0120D1B3A6F591698046F2
:105850003068E0B1F068C46804F11800FEF76EFF2C
:10586000201DFEF76BFFE06A2969884200D9286194
:1058700000EB800109EB8100211DFEF7AFFFE06A1C
:105880002968C96A8842E3D3C5F81C80E0E70CB1F7
:10589000FEF7F4FDAC694CB14FEA0806FFF7A2FE33
:1058A00000B1EE61641EF9D10020A861E86938B149
:1058B0000849012738070860BFF34F8FBFF36F8F88
:1058C000FEF7B8FF3846BDE8F0870000640000200E
:1058D0008C06002004ED00E02DE9FC4781461E46C1
:1058E000174688462C200A9DFEF77EFE04000AD04B
:1058F000002084F82800CDE9005433463A4641465A
:105900004846FEF765FC2046BDE8FC877CB52C26A2
:10591000DDE90654009644B1022684F82860CDE9FA
:105920000054FEF755FC20467CBD502080F31188C2
:10593000BFF34F8FBFF36F8FFEE7000010B586B047
:10594000FEF7F6FA114C2068B8B1002003900490DD
:1059500005AA04A903A8FEF70FFFDDE90321022031
:105960008DE8070000230AA10B48059AFFF7EDFD1B
:10597000606010B106B0012010BD502080F3118886
:10598000BFF34F8FBFF36F8FFEE70000A000002032
:10599000546D722053766300594500082DE9FF418C
:1059A0001E46134602000A9D4FF0000016D0144C0C
:1059B0002768002F0FD0CDE900130292062917DACD
:1059C000FFF7F4FD02284FF000030FD000226946D4
:1059D0002068FFF75FFA04B0BDE8F081502080F343
:1059E0001188BFF34F8FBFF36F8FFEE72A46EEE7B4
:1059F0000023324669463846FFF7FCFAEBE7000021
:105A0000A000002000000000000000001818181876
:105A10000000180066660000000000006C6CFF6C5F
:105A2000FF6C6C6C307C80780CF8300000C6CC18B1
:105A300030CCC600386C3876DCCC76006060C000B4
:105A400000000000180C060606060C18060C1818B4
:105A500018180C0600663CFF3C660000003030FC65
:105A60003030000000000000003060C0000000FC8A
:105A7000000000000000000000303000060C18306C
:105A800060C080007CC6CEDEF6E67C003070303030
:105A90003030FC0078CC0C3860CCFC0078CC0C3872
:105AA0000CCC78001C3C6CCCFE0C1E00FCC0F80C2E
:105AB0000CCC78003860C0F8CCCC7800FCCC0C184A
:105AC0003030300078CCCC78CCCC780078CCCC7C22
:105AD0000C18700000303000003030000030300012
